{
  "contractName": "CryptoEGameBetting",
  "abi": [
    {
      "inputs": [
        {
          "internalType": "address",
          "name": "_sattaTokenAddress",
          "type": "address"
        },
        {
          "internalType": "string",
          "name": "_apiToken",
          "type": "string"
        }
      ],
      "stateMutability": "nonpayable",
      "type": "constructor"
    },
    {
      "anonymous": false,
      "inputs": [
        {
          "indexed": true,
          "internalType": "address",
          "name": "_from",
          "type": "address"
        },
        {
          "indexed": false,
          "internalType": "uint256",
          "name": "matchId",
          "type": "uint256"
        },
        {
          "indexed": false,
          "internalType": "uint256",
          "name": "teamToWin",
          "type": "uint256"
        }
      ],
      "name": "BetPlaced",
      "type": "event"
    },
    {
      "anonymous": false,
      "inputs": [
        {
          "indexed": true,
          "internalType": "bytes32",
          "name": "id",
          "type": "bytes32"
        }
      ],
      "name": "ChainlinkCancelled",
      "type": "event"
    },
    {
      "anonymous": false,
      "inputs": [
        {
          "indexed": true,
          "internalType": "bytes32",
          "name": "id",
          "type": "bytes32"
        }
      ],
      "name": "ChainlinkFulfilled",
      "type": "event"
    },
    {
      "anonymous": false,
      "inputs": [
        {
          "indexed": true,
          "internalType": "bytes32",
          "name": "id",
          "type": "bytes32"
        }
      ],
      "name": "ChainlinkRequested",
      "type": "event"
    },
    {
      "anonymous": false,
      "inputs": [
        {
          "indexed": true,
          "internalType": "address",
          "name": "previousOwner",
          "type": "address"
        },
        {
          "indexed": true,
          "internalType": "address",
          "name": "newOwner",
          "type": "address"
        }
      ],
      "name": "OwnershipTransferred",
      "type": "event"
    },
    {
      "anonymous": false,
      "inputs": [
        {
          "indexed": true,
          "internalType": "address",
          "name": "_to",
          "type": "address"
        },
        {
          "indexed": false,
          "internalType": "uint256",
          "name": "reward",
          "type": "uint256"
        }
      ],
      "name": "Transfer",
      "type": "event"
    },
    {
      "inputs": [],
      "name": "bettingAmount",
      "outputs": [
        {
          "internalType": "uint256",
          "name": "",
          "type": "uint256"
        }
      ],
      "stateMutability": "view",
      "type": "function",
      "constant": true
    },
    {
      "inputs": [],
      "name": "owner",
      "outputs": [
        {
          "internalType": "address",
          "name": "",
          "type": "address"
        }
      ],
      "stateMutability": "view",
      "type": "function",
      "constant": true
    },
    {
      "inputs": [],
      "name": "renounceOwnership",
      "outputs": [],
      "stateMutability": "nonpayable",
      "type": "function"
    },
    {
      "inputs": [
        {
          "internalType": "string",
          "name": "_url",
          "type": "string"
        },
        {
          "internalType": "uint256",
          "name": "_matchId",
          "type": "uint256"
        },
        {
          "internalType": "bytes4",
          "name": "_selector",
          "type": "bytes4"
        }
      ],
      "name": "requestMatchStatus",
      "outputs": [
        {
          "internalType": "bytes32",
          "name": "requestId",
          "type": "bytes32"
        }
      ],
      "stateMutability": "nonpayable",
      "type": "function"
    },
    {
      "inputs": [],
      "name": "satta",
      "outputs": [
        {
          "internalType": "contract ERC20",
          "name": "",
          "type": "address"
        }
      ],
      "stateMutability": "view",
      "type": "function",
      "constant": true
    },
    {
      "inputs": [
        {
          "internalType": "address",
          "name": "newOwner",
          "type": "address"
        }
      ],
      "name": "transferOwnership",
      "outputs": [],
      "stateMutability": "nonpayable",
      "type": "function"
    },
    {
      "inputs": [
        {
          "internalType": "uint256",
          "name": "_matchId",
          "type": "uint256"
        },
        {
          "internalType": "uint256",
          "name": "_teamAId",
          "type": "uint256"
        },
        {
          "internalType": "uint256",
          "name": "_teamBId",
          "type": "uint256"
        },
        {
          "internalType": "uint256",
          "name": "_teamToWinId",
          "type": "uint256"
        }
      ],
      "name": "placeBet",
      "outputs": [],
      "stateMutability": "nonpayable",
      "type": "function"
    },
    {
      "inputs": [
        {
          "internalType": "uint256",
          "name": "_matchId",
          "type": "uint256"
        }
      ],
      "name": "checkAndDistributeRewards",
      "outputs": [],
      "stateMutability": "nonpayable",
      "type": "function"
    },
    {
      "inputs": [
        {
          "internalType": "bytes32",
          "name": "_requestId",
          "type": "bytes32"
        },
        {
          "internalType": "uint256",
          "name": "_result",
          "type": "uint256"
        }
      ],
      "name": "distributeRewards",
      "outputs": [],
      "stateMutability": "nonpayable",
      "type": "function"
    },
    {
      "inputs": [
        {
          "internalType": "uint256",
          "name": "_matchId",
          "type": "uint256"
        }
      ],
      "name": "getMatch",
      "outputs": [
        {
          "components": [
            {
              "internalType": "uint256",
              "name": "matchId",
              "type": "uint256"
            },
            {
              "internalType": "uint256",
              "name": "teamA",
              "type": "uint256"
            },
            {
              "internalType": "uint256",
              "name": "teamB",
              "type": "uint256"
            },
            {
              "internalType": "uint256",
              "name": "totalPayoutA",
              "type": "uint256"
            },
            {
              "internalType": "uint256",
              "name": "totalPayoutB",
              "type": "uint256"
            },
            {
              "internalType": "address[]",
              "name": "betsOnA",
              "type": "address[]"
            },
            {
              "internalType": "address[]",
              "name": "betsOnB",
              "type": "address[]"
            },
            {
              "internalType": "string",
              "name": "apiUrl",
              "type": "string"
            },
            {
              "internalType": "uint256",
              "name": "winner",
              "type": "uint256"
            },
            {
              "internalType": "bool",
              "name": "ended",
              "type": "bool"
            }
          ],
          "internalType": "struct CryptoEGameBetting.Match",
          "name": "",
          "type": "tuple"
        }
      ],
      "stateMutability": "view",
      "type": "function",
      "constant": true
    },
    {
      "inputs": [
        {
          "internalType": "string",
          "name": "_apiToken",
          "type": "string"
        }
      ],
      "name": "setApiToken",
      "outputs": [],
      "stateMutability": "nonpayable",
      "type": "function"
    },
    {
      "inputs": [
        {
          "internalType": "address",
          "name": "_oracle",
          "type": "address"
        },
        {
          "internalType": "bytes32",
          "name": "_jobId",
          "type": "bytes32"
        },
        {
          "internalType": "uint256",
          "name": "_fee",
          "type": "uint256"
        }
      ],
      "name": "setOracleSpecifications",
      "outputs": [],
      "stateMutability": "nonpayable",
      "type": "function"
    }
  ],
  "bytecode": "0x608060405260016005553480156200001657600080fd5b5060405162003fa238038062003fa283398181016040528101906200003c919062000580565b6200005c620000506200020260201b60201c565b6200020a60201b60201c565b73c57b33452b4f7bb189bb5afae9cc4aba1f7a4fd8600760006101000a81548173ffffffffffffffffffffffffffffffffffffffff021916908373ffffffffffffffffffffffffffffffffffffffff1602179055507f643532373064316333313139343164306230386265616432316665613737343760088190555067016345785d8a000060098190555081600e60006101000a81548173ffffffffffffffffffffffffffffffffffffffff021916908373ffffffffffffffffffffffffffffffffffffffff16021790555080600c908051906020019062000140929190620002ce565b50600e60009054906101000a900473ffffffffffffffffffffffffffffffffffffffff1673ffffffffffffffffffffffffffffffffffffffff1663313ce5676040518163ffffffff1660e01b8152600401602060405180830381865afa158015620001af573d6000803e3d6000fd5b505050506040513d601f19601f82011682018060405250810190620001d5919062000624565b60ff16600a620001e69190620007e3565b600a620001f4919062000834565b600b819055505050620008fa565b600033905090565b60008060009054906101000a900473ffffffffffffffffffffffffffffffffffffffff169050816000806101000a81548173ffffffffffffffffffffffffffffffffffffffff021916908373ffffffffffffffffffffffffffffffffffffffff1602179055508173ffffffffffffffffffffffffffffffffffffffff168173ffffffffffffffffffffffffffffffffffffffff167f8be0079c531659141344cd1fd0a4f28419497f9722a3daafe3b4186f6b6457e060405160405180910390a35050565b828054620002dc90620008c4565b90600052602060002090601f0160209004810192826200030057600085556200034c565b82601f106200031b57805160ff19168380011785556200034c565b828001600101855582156200034c579182015b828111156200034b5782518255916020019190600101906200032e565b5b5090506200035b91906200035f565b5090565b5b808211156200037a57600081600090555060010162000360565b5090565b6000604051905090565b600080fd5b600080fd5b600073ffffffffffffffffffffffffffffffffffffffff82169050919050565b6000620003bf8262000392565b9050919050565b620003d181620003b2565b8114620003dd57600080fd5b50565b600081519050620003f181620003c6565b92915050565b600080fd5b600080fd5b6000601f19601f8301169050919050565b7f4e487b7100000000000000000000000000000000000000000000000000000000600052604160045260246000fd5b6200044c8262000401565b810181811067ffffffffffffffff821117156200046e576200046d62000412565b5b80604052505050565b6000620004836200037e565b905062000491828262000441565b919050565b600067ffffffffffffffff821115620004b457620004b362000412565b5b620004bf8262000401565b9050602081019050919050565b60005b83811015620004ec578082015181840152602081019050620004cf565b83811115620004fc576000848401525b50505050565b600062000519620005138462000496565b62000477565b905082815260208101848484011115620005385762000537620003fc565b5b62000545848285620004cc565b509392505050565b600082601f830112620005655762000564620003f7565b5b81516200057784826020860162000502565b91505092915050565b600080604083850312156200059a576200059962000388565b5b6000620005aa85828601620003e0565b925050602083015167ffffffffffffffff811115620005ce57620005cd6200038d565b5b620005dc858286016200054d565b9150509250929050565b600060ff82169050919050565b620005fe81620005e6565b81146200060a57600080fd5b50565b6000815190506200061e81620005f3565b92915050565b6000602082840312156200063d576200063c62000388565b5b60006200064d848285016200060d565b91505092915050565b7f4e487b7100000000000000000000000000000000000000000000000000000000600052601160045260246000fd5b60008160011c9050919050565b6000808291508390505b6001851115620006e457808604811115620006bc57620006bb62000656565b5b6001851615620006cc5780820291505b8081029050620006dc8562000685565b94506200069c565b94509492505050565b600082620006ff5760019050620007d2565b816200070f5760009050620007d2565b8160018114620007285760028114620007335762000769565b6001915050620007d2565b60ff84111562000748576200074762000656565b5b8360020a91508482111562000762576200076162000656565b5b50620007d2565b5060208310610133831016604e8410600b8410161715620007a35782820a9050838111156200079d576200079c62000656565b5b620007d2565b620007b2848484600162000692565b92509050818404811115620007cc57620007cb62000656565b5b81810290505b9392505050565b6000819050919050565b6000620007f082620007d9565b9150620007fd83620007d9565b92506200082c7fffffffffffffffffffffffffffffffffffffffffffffffffffffffffffffffff8484620006ed565b905092915050565b60006200084182620007d9565b91506200084e83620007d9565b9250817fffffffffffffffffffffffffffffffffffffffffffffffffffffffffffffffff04831182151516156200088a576200088962000656565b5b828202905092915050565b7f4e487b7100000000000000000000000000000000000000000000000000000000600052602260045260246000fd5b60006002820490506001821680620008dd57607f821691505b60208210811415620008f457620008f362000895565b5b50919050565b613698806200090a6000396000f3fe608060405234801561001057600080fd5b50600436106100b45760003560e01c8063715018a611610071578063715018a61461018b5780638da5cb5b14610195578063c62e18ee146101b3578063db45c6eb146101d1578063f2fde38b146101ed578063fde6adb114610209576100b4565b806304ef6e3f146100b95780630928ac5c146100d55780631b472c10146100f15780631e72728a1461012157806331ed70311461013f5780633d092b3d1461015b575b600080fd5b6100d360048036038101906100ce9190612430565b610225565b005b6100ef60048036038101906100ea91906125c9565b6102f5565b005b61010b6004803603810190610106919061266a565b61038b565b60405161011891906126e8565b60405180910390f35b610129610502565b6040516101369190612712565b60405180910390f35b6101596004803603810190610154919061272d565b610508565b005b6101756004803603810190610170919061272d565b610690565b60405161018291906129b2565b60405180910390f35b6101936108c3565b005b61019d61094b565b6040516101aa91906129e3565b60405180910390f35b6101bb610974565b6040516101c89190612a5d565b60405180910390f35b6101eb60048036038101906101e69190612a78565b61099a565b005b61020760048036038101906102029190612ab8565b610df3565b005b610223600480360381019061021e9190612ae5565b610eeb565b005b61022d611494565b73ffffffffffffffffffffffffffffffffffffffff1661024b61094b565b73ffffffffffffffffffffffffffffffffffffffff16146102a1576040517f08c379a000000000000000000000000000000000000000000000000000000000815260040161029890612ba9565b60405180910390fd5b82600760006101000a81548173ffffffffffffffffffffffffffffffffffffffff021916908373ffffffffffffffffffffffffffffffffffffffff1602179055508160088190555080600981905550505050565b6102fd611494565b73ffffffffffffffffffffffffffffffffffffffff1661031b61094b565b73ffffffffffffffffffffffffffffffffffffffff1614610371576040517f08c379a000000000000000000000000000000000000000000000000000000000815260040161036890612ba9565b60405180910390fd5b80600c90805190602001906103879291906120e8565b5050565b60008061039b600854308561149c565b90506103e76040518060400160405280600381526020017f676574000000000000000000000000000000000000000000000000000000000081525086836114cd9092919063ffffffff16565b6104666040518060400160405280600481526020017f70617468000000000000000000000000000000000000000000000000000000008152506040518060400160405280600981526020017f77696e6e65722e69640000000000000000000000000000000000000000000000815250836114cd9092919063ffffffff16565b6104b16040518060400160405280600581526020017f74696d65730000000000000000000000000000000000000000000000000000008152506001836115009092919063ffffffff16565b6104e0600760009054906101000a900473ffffffffffffffffffffffffffffffffffffffff1682600954611533565b915083600a600084815260200190815260200160002081905550509392505050565b600b5481565b610510611494565b73ffffffffffffffffffffffffffffffffffffffff1661052e61094b565b73ffffffffffffffffffffffffffffffffffffffff1614610584576040517f08c379a000000000000000000000000000000000000000000000000000000000815260040161057b90612ba9565b60405180910390fd5b6000600d600083815260200190815260200160002090508060090160009054906101000a900460ff16156105ed576040517f08c379a00000000000000000000000000000000000000000000000000000000081526004016105e490612c15565b60405180910390fd5b61068b8160070180546105ff90612c64565b80601f016020809104026020016040519081016040528092919081815260200182805461062b90612c64565b80156106785780601f1061064d57610100808354040283529160200191610678565b820191906000526020600020905b81548152906001019060200180831161065b57829003601f168201915b50505050508363db45c6eb60e01b61038b565b505050565b61069861216e565b600d60008381526020019081526020016000206040518061014001604052908160008201548152602001600182015481526020016002820154815260200160038201548152602001600482015481526020016005820180548060200260200160405190810160405280929190818152602001828054801561076e57602002820191906000526020600020905b8160009054906101000a900473ffffffffffffffffffffffffffffffffffffffff1673ffffffffffffffffffffffffffffffffffffffff1681526020019060010190808311610724575b50505050508152602001600682018054806020026020016040519081016040528092919081815260200182805480156107fc57602002820191906000526020600020905b8160009054906101000a900473ffffffffffffffffffffffffffffffffffffffff1673ffffffffffffffffffffffffffffffffffffffff16815260200190600101908083116107b2575b5050505050815260200160078201805461081590612c64565b80601f016020809104026020016040519081016040528092919081815260200182805461084190612c64565b801561088e5780601f106108635761010080835404028352916020019161088e565b820191906000526020600020905b81548152906001019060200180831161087157829003601f168201915b50505050508152602001600882015481526020016009820160009054906101000a900460ff1615151515815250509050919050565b6108cb611494565b73ffffffffffffffffffffffffffffffffffffffff166108e961094b565b73ffffffffffffffffffffffffffffffffffffffff161461093f576040517f08c379a000000000000000000000000000000000000000000000000000000000815260040161093690612ba9565b60405180910390fd5b61094960006115ff565b565b60008060009054906101000a900473ffffffffffffffffffffffffffffffffffffffff16905090565b600e60009054906101000a900473ffffffffffffffffffffffffffffffffffffffff1681565b816006600082815260200190815260200160002060009054906101000a900473ffffffffffffffffffffffffffffffffffffffff1673ffffffffffffffffffffffffffffffffffffffff163373ffffffffffffffffffffffffffffffffffffffff1614610a3c576040517f08c379a0000000000000000000000000000000000000000000000000000000008152600401610a3390612d08565b60405180910390fd5b6006600082815260200190815260200160002060006101000a81549073ffffffffffffffffffffffffffffffffffffffff0219169055807f7cc135e0cebb02c3480ae5d74d377283180a2601f8f644edf7987b009316c63a60405160405180910390a26000600a60008581526020019081526020016000205490506000600d6000838152602001908152602001600020905060018160090160006101000a81548160ff0219169083151502179055508381600801819055506000610b11826004015483600301546116c390919063ffffffff16565b9050606060008360010154871415610bcf57610b3d8460050180549050846116d990919063ffffffff16565b905083600501805480602002602001604051908101604052809291908181526020018280548015610bc357602002820191906000526020600020905b8160009054906101000a900473ffffffffffffffffffffffffffffffffffffffff1673ffffffffffffffffffffffffffffffffffffffff1681526020019060010190808311610b79575b50505050509150610c84565b8360020154871415610c8357610bf58460060180549050846116d990919063ffffffff16565b905083600601805480602002602001604051908101604052809291908181526020018280548015610c7b57602002820191906000526020600020905b8160009054906101000a900473ffffffffffffffffffffffffffffffffffffffff1673ffffffffffffffffffffffffffffffffffffffff1681526020019060010190808311610c31575b505050505091505b5b60005b8251811015610d5e57600e60009054906101000a900473ffffffffffffffffffffffffffffffffffffffff1673ffffffffffffffffffffffffffffffffffffffff1663a9059cbb848381518110610ce157610ce0612d28565b5b6020026020010151846040518363ffffffff1660e01b8152600401610d07929190612d57565b6020604051808303816000875af1158015610d26573d6000803e3d6000fd5b505050506040513d601f19601f82011682018060405250810190610d4a9190612dac565b508080610d5690612e08565b915050610c87565b50600d60008681526020019081526020016000206000808201600090556001820160009055600282016000905560038201600090556004820160009055600582016000610dab91906121c3565b600682016000610dbb91906121c3565b600782016000610dcb91906121e4565b60088201600090556009820160006101000a81549060ff021916905550505050505050505050565b610dfb611494565b73ffffffffffffffffffffffffffffffffffffffff16610e1961094b565b73ffffffffffffffffffffffffffffffffffffffff1614610e6f576040517f08c379a0000000000000000000000000000000000000000000000000000000008152600401610e6690612ba9565b60405180910390fd5b600073ffffffffffffffffffffffffffffffffffffffff168173ffffffffffffffffffffffffffffffffffffffff161415610edf576040517f08c379a0000000000000000000000000000000000000000000000000000000008152600401610ed690612ec3565b60405180910390fd5b610ee8816115ff565b50565b600e60009054906101000a900473ffffffffffffffffffffffffffffffffffffffff1673ffffffffffffffffffffffffffffffffffffffff166323b872dd3330600b546040518463ffffffff1660e01b8152600401610f4c93929190612ee3565b6020604051808303816000875af1158015610f6b573d6000803e3d6000fd5b505050506040513d601f19601f82011682018060405250810190610f8f9190612dac565b506000610fd1600d600087815260200190815260200160002060040154600d6000888152602001908152602001600020600301546116c390919063ffffffff16565b14156112775760006110c460405180606001604052806022815260200161364160229139610ffe876116ef565b6040518060400160405280600781526020017f3f746f6b656e3d00000000000000000000000000000000000000000000000000815250600c805461104190612c64565b80601f016020809104026020016040519081016040528092919081815260200182805461106d90612c64565b80156110ba5780601f1061108f576101008083540402835291602001916110ba565b820191906000526020600020905b81548152906001019060200180831161109d57829003601f168201915b5050505050611850565b905060006040518061014001604052808781526020018681526020018581526020016000815260200160008152602001600067ffffffffffffffff81111561110f5761110e61249e565b5b60405190808252806020026020018201604052801561113d5781602001602082028036833780820191505090505b508152602001600067ffffffffffffffff81111561115e5761115d61249e565b5b60405190808252806020026020018201604052801561118c5781602001602082028036833780820191505090505b5081526020018381526020016000815260200160001515815250905080600d6000888152602001908152602001600020600082015181600001556020820151816001015560408201518160020155606082015181600301556080820151816004015560a082015181600501908051906020019061120a929190612224565b5060c0820151816006019080519060200190611227929190612224565b5060e08201518160070190805190602001906112449291906120e8565b5061010082015181600801556101208201518160090160006101000a81548160ff02191690831515021790555090505050505b82811415611340576112aa600b54600d6000878152602001908152602001600020600301546116c390919063ffffffff16565b600d600086815260200190815260200160002060030181905550600d6000858152602001908152602001600020600501339080600181540180825580915050600190039060005260206000200160009091909190916101000a81548173ffffffffffffffffffffffffffffffffffffffff021916908373ffffffffffffffffffffffffffffffffffffffff16021790555061143f565b818114611382576040517f08c379a000000000000000000000000000000000000000000000000000000000815260040161137990612f8c565b60405180910390fd5b6113ad600b54600d6000878152602001908152602001600020600401546116c390919063ffffffff16565b600d600086815260200190815260200160002060040181905550600d6000858152602001908152602001600020600601339080600181540180825580915050600190039060005260206000200160009091909190916101000a81548173ffffffffffffffffffffffffffffffffffffffff021916908373ffffffffffffffffffffffffffffffffffffffff1602179055505b3373ffffffffffffffffffffffffffffffffffffffff167e1ecf1d0c4d22f324b3ecb9cdf0e5f772bc74ac104e6626f4b3845433d031058583604051611486929190612fac565b60405180910390a250505050565b600033905090565b6114a46122ae565b6114ac6122ae565b6114c385858584611882909392919063ffffffff16565b9150509392505050565b6114e482846080015161193290919063ffffffff16565b6114fb81846080015161193290919063ffffffff16565b505050565b61151782846080015161193290919063ffffffff16565b61152e81846080015161195790919063ffffffff16565b505050565b60008060055490506001816115489190612fd5565b6005819055506000634042994660e01b60008087600001513089604001518760018c608001516000015160405160240161158998979695949392919061308f565b604051602081830303815290604052907bffffffffffffffffffffffffffffffffffffffffffffffffffffffff19166020820180517bffffffffffffffffffffffffffffffffffffffffffffffffffffffff838183161783525050505090506115f486838684611a04565b925050509392505050565b60008060009054906101000a900473ffffffffffffffffffffffffffffffffffffffff169050816000806101000a81548173ffffffffffffffffffffffffffffffffffffffff021916908373ffffffffffffffffffffffffffffffffffffffff1602179055508173ffffffffffffffffffffffffffffffffffffffff168173ffffffffffffffffffffffffffffffffffffffff167f8be0079c531659141344cd1fd0a4f28419497f9722a3daafe3b4186f6b6457e060405160405180910390a35050565b600081836116d19190612fd5565b905092915050565b600081836116e79190613143565b905092915050565b60606000821415611737576040518060400160405280600181526020017f3000000000000000000000000000000000000000000000000000000000000000815250905061184b565b600082905060005b6000821461176957808061175290612e08565b915050600a826117629190613143565b915061173f565b60008167ffffffffffffffff8111156117855761178461249e565b5b6040519080825280601f01601f1916602001820160405280156117b75781602001600182028036833780820191505090505b5090505b60008514611844576001826117d09190613174565b9150600a856117df91906131a8565b60306117eb9190612fd5565b60f81b81838151811061180157611800612d28565b5b60200101907effffffffffffffffffffffffffffffffffffffffffffffffffffffffffffff1916908160001a905350600a8561183d9190613143565b94506117bb565b8093505050505b919050565b6060848484846040516020016118699493929190613215565b6040516020818303038152906040529050949350505050565b61188a6122ae565b61189a8560800151610100611b99565b508385600001818152505082856020019073ffffffffffffffffffffffffffffffffffffffff16908173ffffffffffffffffffffffffffffffffffffffff16815250508185604001907bffffffffffffffffffffffffffffffffffffffffffffffffffffffff191690817bffffffffffffffffffffffffffffffffffffffffffffffffffffffff191681525050849050949350505050565b61193f8260038351611c03565b6119528183611d8890919063ffffffff16565b505050565b7fffffffffffffffffffffffffffffffffffffffffffffffff000000000000000081121561198e576119898282611daa565b611a00565b67ffffffffffffffff8113156119ad576119a88282611e21565b6119ff565b600081126119c6576119c182600083611c03565b6119fe565b6119fd826001837fffffffffffffffffffffffffffffffffffffffffffffffffffffffffffffffff6119f8919061325d565b611c03565b5b5b5b5050565b60003084604051602001611a1992919061336c565b604051602081830303815290604052805190602001209050846006600083815260200190815260200160002060006101000a81548173ffffffffffffffffffffffffffffffffffffffff021916908373ffffffffffffffffffffffffffffffffffffffff160217905550807fb5e6e01e79f91267dc17b4e6314d5d4d03593d2ceee0fbb452b750bd70ea5af960405160405180910390a2600360009054906101000a900473ffffffffffffffffffffffffffffffffffffffff1673ffffffffffffffffffffffffffffffffffffffff16634000aea08685856040518463ffffffff1660e01b8152600401611b0f93929190613398565b6020604051808303816000875af1158015611b2e573d6000803e3d6000fd5b505050506040513d601f19601f82011682018060405250810190611b529190612dac565b611b91576040517f08c379a0000000000000000000000000000000000000000000000000000000008152600401611b8890613448565b60405180910390fd5b949350505050565b611ba161231b565b6000602083611bb091906131a8565b14611bdc57602082611bc291906131a8565b6020611bce9190613174565b82611bd99190612fd5565b91505b81836020018181525050604051808452600081528281016020016040525082905092915050565b60178167ffffffffffffffff1611611c3a57611c348160058460ff16901b60ff161784611e6d90919063ffffffff16565b50611d83565b60ff8167ffffffffffffffff1611611c9057611c69601860058460ff16901b1784611e6d90919063ffffffff16565b50611c8a8167ffffffffffffffff16600185611e8d9092919063ffffffff16565b50611d82565b61ffff8167ffffffffffffffff1611611ce757611cc0601960058460ff16901b1784611e6d90919063ffffffff16565b50611ce18167ffffffffffffffff16600285611e8d9092919063ffffffff16565b50611d81565b63ffffffff8167ffffffffffffffff1611611d4057611d19601a60058460ff16901b1784611e6d90919063ffffffff16565b50611d3a8167ffffffffffffffff16600485611e8d9092919063ffffffff16565b50611d80565b611d5d601b60058460ff16901b1784611e6d90919063ffffffff16565b50611d7e8167ffffffffffffffff16600885611e8d9092919063ffffffff16565b505b5b5b5b505050565b611d9061231b565b611da283846000015151848551611eaf565b905092915050565b611dc860036005600660ff16901b1783611e6d90919063ffffffff16565b50611e1d82827fffffffffffffffffffffffffffffffffffffffffffffffffffffffffffffffff611df9919061325d565b604051602001611e099190612712565b604051602081830303815290604052611f9e565b5050565b611e3f60026005600660ff16901b1783611e6d90919063ffffffff16565b50611e698282604051602001611e559190612712565b604051602081830303815290604052611f9e565b5050565b611e7561231b565b611e858384600001515184611fc3565b905092915050565b611e9561231b565b611ea684856000015151858561201a565b90509392505050565b611eb761231b565b8251821115611ec557600080fd5b84602001518285611ed69190612fd5565b1115611f0b57611f0a856002611efb88602001518887611ef69190612fd5565b6120a8565b611f059190613468565b6120c4565b5b600080865180518760208301019350808887011115611f2a5787860182525b60208701925050505b60208410611f715780518252602082611f4c9190612fd5565b9150602081611f5b9190612fd5565b9050602084611f6a9190613174565b9350611f33565b60006001856020036101000a03905080198251168184511681811785525050508692505050949350505050565b611fab8260028351611c03565b611fbe8183611d8890919063ffffffff16565b505050565b611fcb61231b565b83602001518310611ff157611ff08460028660200151611feb9190613468565b6120c4565b5b835180516020858301018481538186141561200d576001820183525b5050508390509392505050565b61202261231b565b846020015184836120339190612fd5565b111561205b5761205a856002868561204b9190612fd5565b6120559190613468565b6120c4565b5b600060018361010061206d91906135f5565b6120779190613174565b9050855183868201018583198251161781528151858801111561209a5784870182525b505085915050949350505050565b6000818311156120ba578290506120be565b8190505b92915050565b6000826000015190506120d78383611b99565b506120e28382611d88565b50505050565b8280546120f490612c64565b90600052602060002090601f016020900481019282612116576000855561215d565b82601f1061212f57805160ff191683800117855561215d565b8280016001018555821561215d579182015b8281111561215c578251825591602001919060010190612141565b5b50905061216a9190612335565b5090565b6040518061014001604052806000815260200160008152602001600081526020016000815260200160008152602001606081526020016060815260200160608152602001600081526020016000151581525090565b50805460008255906000526020600020908101906121e19190612335565b50565b5080546121f090612c64565b6000825580601f106122025750612221565b601f0160209004906000526020600020908101906122209190612335565b5b50565b82805482825590600052602060002090810192821561229d579160200282015b8281111561229c5782518260006101000a81548173ffffffffffffffffffffffffffffffffffffffff021916908373ffffffffffffffffffffffffffffffffffffffff16021790555091602001919060010190612244565b5b5090506122aa9190612335565b5090565b6040518060a0016040528060008019168152602001600073ffffffffffffffffffffffffffffffffffffffff16815260200160007bffffffffffffffffffffffffffffffffffffffffffffffffffffffff191681526020016000815260200161231561231b565b81525090565b604051806040016040528060608152602001600081525090565b5b8082111561234e576000816000905550600101612336565b5090565b6000604051905090565b600080fd5b600080fd5b600073ffffffffffffffffffffffffffffffffffffffff82169050919050565b600061239182612366565b9050919050565b6123a181612386565b81146123ac57600080fd5b50565b6000813590506123be81612398565b92915050565b6000819050919050565b6123d7816123c4565b81146123e257600080fd5b50565b6000813590506123f4816123ce565b92915050565b6000819050919050565b61240d816123fa565b811461241857600080fd5b50565b60008135905061242a81612404565b92915050565b6000806000606084860312156124495761244861235c565b5b6000612457868287016123af565b9350506020612468868287016123e5565b92505060406124798682870161241b565b9150509250925092565b600080fd5b600080fd5b6000601f19601f8301169050919050565b7f4e487b7100000000000000000000000000000000000000000000000000000000600052604160045260246000fd5b6124d68261248d565b810181811067ffffffffffffffff821117156124f5576124f461249e565b5b80604052505050565b6000612508612352565b905061251482826124cd565b919050565b600067ffffffffffffffff8211156125345761253361249e565b5b61253d8261248d565b9050602081019050919050565b82818337600083830152505050565b600061256c61256784612519565b6124fe565b90508281526020810184848401111561258857612587612488565b5b61259384828561254a565b509392505050565b600082601f8301126125b0576125af612483565b5b81356125c0848260208601612559565b91505092915050565b6000602082840312156125df576125de61235c565b5b600082013567ffffffffffffffff8111156125fd576125fc612361565b5b6126098482850161259b565b91505092915050565b60007fffffffff0000000000000000000000000000000000000000000000000000000082169050919050565b61264781612612565b811461265257600080fd5b50565b6000813590506126648161263e565b92915050565b6000806000606084860312156126835761268261235c565b5b600084013567ffffffffffffffff8111156126a1576126a0612361565b5b6126ad8682870161259b565b93505060206126be8682870161241b565b92505060406126cf86828701612655565b9150509250925092565b6126e2816123c4565b82525050565b60006020820190506126fd60008301846126d9565b92915050565b61270c816123fa565b82525050565b60006020820190506127276000830184612703565b92915050565b6000602082840312156127435761274261235c565b5b60006127518482850161241b565b91505092915050565b612763816123fa565b82525050565b600081519050919050565b600082825260208201905092915050565b6000819050602082019050919050565b61279e81612386565b82525050565b60006127b08383612795565b60208301905092915050565b6000602082019050919050565b60006127d482612769565b6127de8185612774565b93506127e983612785565b8060005b8381101561281a57815161280188826127a4565b975061280c836127bc565b9250506001810190506127ed565b5085935050505092915050565b600081519050919050565b600082825260208201905092915050565b60005b83811015612861578082015181840152602081019050612846565b83811115612870576000848401525b50505050565b600061288182612827565b61288b8185612832565b935061289b818560208601612843565b6128a48161248d565b840191505092915050565b60008115159050919050565b6128c4816128af565b82525050565b6000610140830160008301516128e3600086018261275a565b5060208301516128f6602086018261275a565b506040830151612909604086018261275a565b50606083015161291c606086018261275a565b50608083015161292f608086018261275a565b5060a083015184820360a086015261294782826127c9565b91505060c083015184820360c086015261296182826127c9565b91505060e083015184820360e086015261297b8282612876565b91505061010083015161299261010086018261275a565b506101208301516129a76101208601826128bb565b508091505092915050565b600060208201905081810360008301526129cc81846128ca565b905092915050565b6129dd81612386565b82525050565b60006020820190506129f860008301846129d4565b92915050565b6000819050919050565b6000612a23612a1e612a1984612366565b6129fe565b612366565b9050919050565b6000612a3582612a08565b9050919050565b6000612a4782612a2a565b9050919050565b612a5781612a3c565b82525050565b6000602082019050612a726000830184612a4e565b92915050565b60008060408385031215612a8f57612a8e61235c565b5b6000612a9d858286016123e5565b9250506020612aae8582860161241b565b9150509250929050565b600060208284031215612ace57612acd61235c565b5b6000612adc848285016123af565b91505092915050565b60008060008060808587031215612aff57612afe61235c565b5b6000612b0d8782880161241b565b9450506020612b1e8782880161241b565b9350506040612b2f8782880161241b565b9250506060612b408782880161241b565b91505092959194509250565b600082825260208201905092915050565b7f4f776e61626c653a2063616c6c6572206973206e6f7420746865206f776e6572600082015250565b6000612b93602083612b4c565b9150612b9e82612b5d565b602082019050919050565b60006020820190508181036000830152612bc281612b86565b9050919050565b7f6d617463682068617320616c726561647920656e646564000000000000000000600082015250565b6000612bff601783612b4c565b9150612c0a82612bc9565b602082019050919050565b60006020820190508181036000830152612c2e81612bf2565b9050919050565b7f4e487b7100000000000000000000000000000000000000000000000000000000600052602260045260246000fd5b60006002820490506001821680612c7c57607f821691505b60208210811415612c9057612c8f612c35565b5b50919050565b7f536f75726365206d75737420626520746865206f7261636c65206f662074686560008201527f2072657175657374000000000000000000000000000000000000000000000000602082015250565b6000612cf2602883612b4c565b9150612cfd82612c96565b604082019050919050565b60006020820190508181036000830152612d2181612ce5565b9050919050565b7f4e487b7100000000000000000000000000000000000000000000000000000000600052603260045260246000fd5b6000604082019050612d6c60008301856129d4565b612d796020830184612703565b9392505050565b612d89816128af565b8114612d9457600080fd5b50565b600081519050612da681612d80565b92915050565b600060208284031215612dc257612dc161235c565b5b6000612dd084828501612d97565b91505092915050565b7f4e487b7100000000000000000000000000000000000000000000000000000000600052601160045260246000fd5b6000612e13826123fa565b91507fffffffffffffffffffffffffffffffffffffffffffffffffffffffffffffffff821415612e4657612e45612dd9565b5b600182019050919050565b7f4f776e61626c653a206e6577206f776e657220697320746865207a65726f206160008201527f6464726573730000000000000000000000000000000000000000000000000000602082015250565b6000612ead602683612b4c565b9150612eb882612e51565b604082019050919050565b60006020820190508181036000830152612edc81612ea0565b9050919050565b6000606082019050612ef860008301866129d4565b612f0560208301856129d4565b612f126040830184612703565b949350505050565b7f5465616d20746f2077696e2073686f756c64206265206569746865722074656160008201527f6d41206f72207465616d42000000000000000000000000000000000000000000602082015250565b6000612f76602b83612b4c565b9150612f8182612f1a565b604082019050919050565b60006020820190508181036000830152612fa581612f69565b9050919050565b6000604082019050612fc16000830185612703565b612fce6020830184612703565b9392505050565b6000612fe0826123fa565b9150612feb836123fa565b9250827fffffffffffffffffffffffffffffffffffffffffffffffffffffffffffffffff038211156130205761301f612dd9565b5b828201905092915050565b61303481612612565b82525050565b600081519050919050565b600082825260208201905092915050565b60006130618261303a565b61306b8185613045565b935061307b818560208601612843565b6130848161248d565b840191505092915050565b6000610100820190506130a5600083018b6129d4565b6130b2602083018a612703565b6130bf60408301896126d9565b6130cc60608301886129d4565b6130d9608083018761302b565b6130e660a0830186612703565b6130f360c0830185612703565b81810360e08301526131058184613056565b90509998505050505050505050565b7f4e487b7100000000000000000000000000000000000000000000000000000000600052601260045260246000fd5b600061314e826123fa565b9150613159836123fa565b92508261316957613168613114565b5b828204905092915050565b600061317f826123fa565b915061318a836123fa565b92508282101561319d5761319c612dd9565b5b828203905092915050565b60006131b3826123fa565b91506131be836123fa565b9250826131ce576131cd613114565b5b828206905092915050565b600081905092915050565b60006131ef82612827565b6131f981856131d9565b9350613209818560208601612843565b80840191505092915050565b600061322182876131e4565b915061322d82866131e4565b915061323982856131e4565b915061324582846131e4565b915081905095945050505050565b6000819050919050565b600061326882613253565b915061327383613253565b9250827f8000000000000000000000000000000000000000000000000000000000000000018212600084121516156132ae576132ad612dd9565b5b827f7fffffffffffffffffffffffffffffffffffffffffffffffffffffffffffffff0182136000841216156132e6576132e5612dd9565b5b828203905092915050565b60006132fc82612a2a565b9050919050565b60008160601b9050919050565b600061331b82613303565b9050919050565b600061332d82613310565b9050919050565b613345613340826132f1565b613322565b82525050565b6000819050919050565b613366613361826123fa565b61334b565b82525050565b60006133788285613334565b6014820191506133888284613355565b6020820191508190509392505050565b60006060820190506133ad60008301866129d4565b6133ba6020830185612703565b81810360408301526133cc8184613056565b9050949350505050565b7f756e61626c6520746f207472616e73666572416e6443616c6c20746f206f726160008201527f636c650000000000000000000000000000000000000000000000000000000000602082015250565b6000613432602383612b4c565b915061343d826133d6565b604082019050919050565b6000602082019050818103600083015261346181613425565b9050919050565b6000613473826123fa565b915061347e836123fa565b9250817fffffffffffffffffffffffffffffffffffffffffffffffffffffffffffffffff04831182151516156134b7576134b6612dd9565b5b828202905092915050565b60008160011c9050919050565b6000808291508390505b6001851115613519578086048111156134f5576134f4612dd9565b5b60018516156135045780820291505b8081029050613512856134c2565b94506134d9565b94509492505050565b60008261353257600190506135ee565b8161354057600090506135ee565b816001811461355657600281146135605761358f565b60019150506135ee565b60ff84111561357257613571612dd9565b5b8360020a91508482111561358957613588612dd9565b5b506135ee565b5060208310610133831016604e8410600b84101617156135c45782820a9050838111156135bf576135be612dd9565b5b6135ee565b6135d184848460016134cf565b925090508184048111156135e8576135e7612dd9565b5b81810290505b9392505050565b6000613600826123fa565b915061360b836123fa565b92506136387fffffffffffffffffffffffffffffffffffffffffffffffffffffffffffffffff8484613522565b90509291505056fe68747470733a2f2f6170692e70616e646173636f72652e636f2f6d6174636865732fa2646970667358221220d16975352ce674a2d06608f3b5e4513495779db4eb53fdfdbb770d1321df9fa064736f6c634300080c0033",
  "immutableReferences": {},
  "source": "// SPDX-License-Identifier: MIT\npragma solidity ^0.8.4;\n\nimport \"@openzeppelin/contracts/utils/math/SafeMath.sol\";\nimport \"@openzeppelin/contracts/access/Ownable.sol\";\nimport \"@openzeppelin/contracts/utils/Strings.sol\";\nimport \"./strings.sol\";\nimport \"./Satta.sol\";\nimport \"./OracleClient.sol\";\n\n\ncontract CryptoEGameBetting is Ownable, OracleClient {\n\n    using SafeMath for uint256;\n\n    event BetPlaced(address indexed _from, uint matchId, uint256 teamToWin);\n    event Transfer(address indexed _to, uint reward);\n\n    uint256 public bettingAmount;\n    string private apiToken;\n\n    struct Match {\n        uint256 matchId;\n\n        uint256 teamA;\n        uint256 teamB;\n\n        uint256 totalPayoutA;\n        uint256 totalPayoutB;\n\n        address[] betsOnA;\n        address[] betsOnB;\n\n        string apiUrl;\n\n        uint256 winner;\n        bool ended;\n    }\n\n    mapping(uint256 => Match) private idToMatch;\n\n    ERC20 public satta;\n\n    constructor(address _sattaTokenAddress, string memory _apiToken) OracleClient() {\n        satta         = Satta(_sattaTokenAddress);\n        apiToken      = _apiToken;\n\n        bettingAmount = 10 * 10**uint(satta.decimals());\n    }\n\n    modifier validatePlaceBets(uint256 _matchId) {\n        // TODO: check if match is not_started \n        string memory errorMessage = concatStrings(\"Bet Price is \", Strings.toString(bettingAmount.div(satta.decimals())), \"!! Please allow this amount to be spent by contract address\", \"\");\n        require(satta.allowance(msg.sender, address(this)) >= bettingAmount, errorMessage);\n        _;\n    }\n\n    function placeBet(uint _matchId, uint _teamAId, uint _teamBId, uint _teamToWinId) public {\n        // TODO: sattaToken.approve(CryptoCricketBetting.address, bettingAmount) in UI\n        satta.transferFrom(msg.sender, address(this), bettingAmount);\n\n        if(idToMatch[_matchId].totalPayoutA.add(idToMatch[_matchId].totalPayoutB) == 0)\n        {\n            string memory matchUrl = concatStrings(\"https://api.pandascore.co/matches/\", Strings.toString(_matchId), \"?token=\", apiToken);\n            Match memory newMatch = Match({matchId:_matchId, teamA:_teamAId, teamB:_teamBId, totalPayoutA:0, totalPayoutB:0, betsOnA: new address[](0), betsOnB: new address[](0), apiUrl:matchUrl, winner:0, ended:false});\n            idToMatch[_matchId] = newMatch;\n        }\n\n        if(_teamToWinId == _teamAId)\n        {\n            idToMatch[_matchId].totalPayoutA = idToMatch[_matchId].totalPayoutA.add(bettingAmount);\n            idToMatch[_matchId].betsOnA.push(msg.sender);\n        }\n        else\n        {\n            require(_teamToWinId == _teamBId, \"Team to win should be either teamA or teamB\");\n            idToMatch[_matchId].totalPayoutB = idToMatch[_matchId].totalPayoutB.add(bettingAmount);\n            idToMatch[_matchId].betsOnB.push(msg.sender);\n        }\n\n        emit BetPlaced(msg.sender, _matchId, _teamToWinId);\n    }\n\n    function checkAndDistributeRewards(uint256 _matchId) public onlyOwner {\n        Match storage _match = idToMatch[_matchId];\n        require(!_match.ended, \"match has already ended\");\n        requestMatchStatus(_match.apiUrl, _matchId, this.distributeRewards.selector);\n    }\n\n    function distributeRewards(bytes32 _requestId, uint256 _result) public recordChainlinkFulfillment(_requestId){\n        uint256 matchId = requestIdToMatch[_requestId];\n        Match storage completedMatch = idToMatch[matchId];\n        completedMatch.ended = true;\n        completedMatch.winner = _result;\n\n        uint totalRewards = completedMatch.totalPayoutA.add(completedMatch.totalPayoutB);\n\n        address[] memory winners;\n        uint reward;\n        if(_result == completedMatch.teamA) {\n            reward  = totalRewards.div(completedMatch.betsOnA.length);\n            winners = completedMatch.betsOnA;\n        }\n        else if(_result == completedMatch.teamB) {\n            reward  = totalRewards.div(completedMatch.betsOnB.length);\n            winners = completedMatch.betsOnB;\n        }\n\n        for(uint i = 0; i < winners.length; i++)\n        {\n            satta.transfer(winners[i], reward);\n        }\n\n        delete idToMatch[matchId];\n    }\n\n    function concatStrings(string memory _string1, string memory _string2, string memory _string3, string memory _string4) private pure returns (string memory) {\n        return string(abi.encodePacked(_string1, _string2, _string3, _string4));\n        // return _string1.toSlice().concat(_string2.toSlice()).concat(_string3.toSlice()).concat(_string4.toSlice());\n    }\n\n    function getMatch(uint _matchId) public view returns (Match memory) {\n        return idToMatch[_matchId];\n    }\n\n    function setApiToken(string memory _apiToken) public onlyOwner {\n        apiToken = _apiToken;\n    }\n\n    function setOracleSpecifications(address _oracle, bytes32 _jobId, uint _fee) public onlyOwner {\n        oracle = _oracle;\n        jobId  = _jobId;\n        fee    = _fee;\n    }\n}",
  "sourcePath": "/Users/rishabh/projects/blockchain/battle-arena/src/contracts/CryptoEGameBetting.sol",
  "compiler": {
    "name": "solc",
    "version": "0.8.12+commit.f00d7308.Emscripten.clang"
  },
  "schemaVersion": "3.4.6",
  "updatedAt": "2022-03-12T21:24:28.177Z",
  "networkType": "ethereum",
  "devdoc": {
    "kind": "dev",
    "methods": {
      "owner()": {
        "details": "Returns the address of the current owner."
      },
      "renounceOwnership()": {
        "details": "Leaves the contract without owner. It will not be possible to call `onlyOwner` functions anymore. Can only be called by the current owner. NOTE: Renouncing ownership will leave the contract without an owner, thereby removing any functionality that is only available to the owner."
      },
      "transferOwnership(address)": {
        "details": "Transfers ownership of the contract to a new account (`newOwner`). Can only be called by the current owner."
      }
    },
    "version": 1
  },
  "userdoc": {
    "kind": "user",
    "methods": {},
    "version": 1
  }
}